{
  "contractName": "WagyuTransaction",
  "abi": [
    {
      "inputs": [
        {
          "internalType": "string",
          "name": "",
          "type": "string"
        }
      ],
      "name": "manufacturer",
      "outputs": [
        {
          "internalType": "string",
          "name": "butcherName",
          "type": "string"
        },
        {
          "internalType": "string",
          "name": "butcherLoc",
          "type": "string"
        },
        {
          "internalType": "string",
          "name": "halalslaughterMethod",
          "type": "string"
        },
        {
          "internalType": "string",
          "name": "imgRef",
          "type": "string"
        },
        {
          "internalType": "string",
          "name": "dateDistribute",
          "type": "string"
        },
        {
          "internalType": "bool",
          "name": "availability",
          "type": "bool"
        }
      ],
      "stateMutability": "view",
      "type": "function",
      "constant": true
    },
    {
      "inputs": [],
      "name": "owner",
      "outputs": [
        {
          "internalType": "address",
          "name": "",
          "type": "address"
        }
      ],
      "stateMutability": "view",
      "type": "function",
      "constant": true
    },
    {
      "inputs": [
        {
          "internalType": "string",
          "name": "wagyuID",
          "type": "string"
        }
      ],
      "name": "wagyuUnavailability",
      "outputs": [],
      "stateMutability": "nonpayable",
      "type": "function"
    },
    {
      "inputs": [
        {
          "internalType": "string",
          "name": "wagyuID",
          "type": "string"
        }
      ],
      "name": "requestBuy",
      "outputs": [],
      "stateMutability": "nonpayable",
      "type": "function"
    }
  ],
  "bytecode": "0x608060405234801561001057600080fd5b50610933806100206000396000f3fe608060405234801561001057600080fd5b506004361061004c5760003560e01c806354d72f6214610051578063899b749c1461006d5780638da5cb5b14610089578063ec1a4499146100a7575b600080fd5b61006b6004803603810190610066919061061b565b6100dc565b005b6100876004803603810190610082919061061b565b610119565b005b610091610196565b60405161009e91906106a5565b60405180910390f35b6100c160048036038101906100bc919061061b565b6101ba565b6040516100d39695949392919061075a565b60405180910390f35b60006001826040516100ee919061081a565b908152602001604051809103902060050160006101000a81548160ff02191690831515021790555050565b8060018160405161012a919061081a565b908152602001604051809103902060050160009054906101000a900460ff1615610189576040517f08c379a00000000000000000000000000000000000000000000000000000000081526004016101809061087d565b60405180910390fd5b610192826100dc565b5050565b60008054906101000a900473ffffffffffffffffffffffffffffffffffffffff1681565b6001818051602081018201805184825260208301602085012081835280955050505050506000915090508060000180546101f3906108cc565b80601f016020809104026020016040519081016040528092919081815260200182805461021f906108cc565b801561026c5780601f106102415761010080835404028352916020019161026c565b820191906000526020600020905b81548152906001019060200180831161024f57829003601f168201915b505050505090806001018054610281906108cc565b80601f01602080910402602001604051908101604052809291908181526020018280546102ad906108cc565b80156102fa5780601f106102cf576101008083540402835291602001916102fa565b820191906000526020600020905b8154815290600101906020018083116102dd57829003601f168201915b50505050509080600201805461030f906108cc565b80601f016020809104026020016040519081016040528092919081815260200182805461033b906108cc565b80156103885780601f1061035d57610100808354040283529160200191610388565b820191906000526020600020905b81548152906001019060200180831161036b57829003601f168201915b50505050509080600301805461039d906108cc565b80601f01602080910402602001604051908101604052809291908181526020018280546103c9906108cc565b80156104165780601f106103eb57610100808354040283529160200191610416565b820191906000526020600020905b8154815290600101906020018083116103f957829003601f168201915b50505050509080600401805461042b906108cc565b80601f0160208091040260200160405190810160405280929190818152602001828054610457906108cc565b80156104a45780601f10610479576101008083540402835291602001916104a4565b820191906000526020600020905b81548152906001019060200180831161048757829003601f168201915b5050505050908060050160009054906101000a900460ff16905086565b6000604051905090565b600080fd5b600080fd5b600080fd5b600080fd5b6000601f19601f8301169050919050565b7f4e487b7100000000000000000000000000000000000000000000000000000000600052604160045260246000fd5b610528826104df565b810181811067ffffffffffffffff82111715610547576105466104f0565b5b80604052505050565b600061055a6104c1565b9050610566828261051f565b919050565b600067ffffffffffffffff821115610586576105856104f0565b5b61058f826104df565b9050602081019050919050565b82818337600083830152505050565b60006105be6105b98461056b565b610550565b9050828152602081018484840111156105da576105d96104da565b5b6105e584828561059c565b509392505050565b600082601f830112610602576106016104d5565b5b81356106128482602086016105ab565b91505092915050565b600060208284031215610631576106306104cb565b5b600082013567ffffffffffffffff81111561064f5761064e6104d0565b5b61065b848285016105ed565b91505092915050565b600073ffffffffffffffffffffffffffffffffffffffff82169050919050565b600061068f82610664565b9050919050565b61069f81610684565b82525050565b60006020820190506106ba6000830184610696565b92915050565b600081519050919050565b600082825260208201905092915050565b60005b838110156106fa5780820151818401526020810190506106df565b60008484015250505050565b6000610711826106c0565b61071b81856106cb565b935061072b8185602086016106dc565b610734816104df565b840191505092915050565b60008115159050919050565b6107548161073f565b82525050565b600060c08201905081810360008301526107748189610706565b905081810360208301526107888188610706565b9050818103604083015261079c8187610706565b905081810360608301526107b08186610706565b905081810360808301526107c48185610706565b90506107d360a083018461074b565b979650505050505050565b600081905092915050565b60006107f4826106c0565b6107fe81856107de565b935061080e8185602086016106dc565b80840191505092915050565b600061082682846107e9565b915081905092915050565b7f546865206d65617420686173206265656e20626f756768740000000000000000600082015250565b60006108676018836106cb565b915061087282610831565b602082019050919050565b600060208201905081810360008301526108968161085a565b9050919050565b7f4e487b7100000000000000000000000000000000000000000000000000000000600052602260045260246000fd5b600060028204905060018216806108e457607f821691505b6020821081036108f7576108f661089d565b5b5091905056fea26469706673582212203070d1a4bc5c13984a33e6d14f4ddfc1da62eef9af3e88f55eca446a80df139764736f6c63430008110033",
  "immutableReferences": {},
  "source": "// SPDX-License-Identifier: MIT\r\npragma solidity >=0.4.22 <0.9.0;\r\n\r\nimport \"./Wagyu.sol\";\r\n\r\ncontract WagyuTransaction{\r\n\r\n  // Mapping of addresses to balance\r\n  address public owner;\r\n  mapping(string => Manufacturer) public manufacturer;\r\n\r\n  // Check either the Wagyu meat has been buy or not\r\n  modifier isBought(string memory wagyuID) {\r\n    require (!manufacturer[wagyuID].availability, \"The meat has been bought\");\r\n    _;\r\n  }\r\n\r\n  //Function to change the availability of Wagyu meat\r\n  function wagyuUnavailability (string memory wagyuID) public{\r\n    manufacturer[wagyuID].availability = false;\r\n  }\r\n\r\n  // Function to make a transaction from one address to another\r\n  function requestBuy(string memory wagyuID) public isBought(wagyuID){  \r\n    wagyuUnavailability(wagyuID);\r\n  }\r\n}",
  "sourcePath": "C:\\Users\\LeonyX\\Documents\\Blockchain\\.vscode\\GroupProject\\mywagyu\\src\\truffle\\contracts\\Transaction.sol",
  "compiler": {
    "name": "solc",
    "version": "0.8.17+commit.8df45f5f.Emscripten.clang"
  },
  "schemaVersion": "3.4.11",
  "updatedAt": "2023-01-24T18:33:48.794Z",
  "networkType": "ethereum",
  "devdoc": {
    "kind": "dev",
    "methods": {},
    "version": 1
  },
  "userdoc": {
    "kind": "user",
    "methods": {},
    "version": 1
  }
}