{
  "contractName": "WagyuInfo",
  "abi": [
    {
      "inputs": [],
      "stateMutability": "nonpayable",
      "type": "constructor"
    },
    {
      "inputs": [
        {
          "internalType": "string",
          "name": "",
          "type": "string"
        }
      ],
      "name": "manufacturer",
      "outputs": [
        {
          "internalType": "string",
          "name": "butcherName",
          "type": "string"
        },
        {
          "internalType": "string",
          "name": "butcherLoc",
          "type": "string"
        },
        {
          "internalType": "string",
          "name": "halalslaughterMethod",
          "type": "string"
        },
        {
          "internalType": "string",
          "name": "imgRef",
          "type": "string"
        },
        {
          "internalType": "string",
          "name": "dateDistribute",
          "type": "string"
        },
        {
          "internalType": "bool",
          "name": "availability",
          "type": "bool"
        }
      ],
      "stateMutability": "view",
      "type": "function",
      "constant": true
    },
    {
      "inputs": [
        {
          "internalType": "string",
          "name": "",
          "type": "string"
        }
      ],
      "name": "wagyu",
      "outputs": [
        {
          "internalType": "string",
          "name": "age",
          "type": "string"
        },
        {
          "internalType": "string",
          "name": "breed",
          "type": "string"
        },
        {
          "internalType": "string",
          "name": "grade",
          "type": "string"
        },
        {
          "internalType": "string",
          "name": "farmerName",
          "type": "string"
        },
        {
          "internalType": "string",
          "name": "farmLoc",
          "type": "string"
        },
        {
          "internalType": "string",
          "name": "halalCareMethod",
          "type": "string"
        }
      ],
      "stateMutability": "view",
      "type": "function",
      "constant": true
    },
    {
      "inputs": [
        {
          "internalType": "string",
          "name": "wagyuID",
          "type": "string"
        },
        {
          "internalType": "string",
          "name": "_age",
          "type": "string"
        },
        {
          "internalType": "string",
          "name": "breed",
          "type": "string"
        },
        {
          "internalType": "string",
          "name": "grade",
          "type": "string"
        },
        {
          "internalType": "string",
          "name": "farmerName",
          "type": "string"
        },
        {
          "internalType": "string",
          "name": "farmLoc",
          "type": "string"
        },
        {
          "internalType": "string",
          "name": "halalCareMethod",
          "type": "string"
        }
      ],
      "name": "addWagyu",
      "outputs": [],
      "stateMutability": "nonpayable",
      "type": "function"
    },
    {
      "inputs": [
        {
          "internalType": "string",
          "name": "wagyuID",
          "type": "string"
        }
      ],
      "name": "wagyuAvailability",
      "outputs": [],
      "stateMutability": "nonpayable",
      "type": "function"
    },
    {
      "inputs": [
        {
          "internalType": "string",
          "name": "wagyuID",
          "type": "string"
        },
        {
          "internalType": "string",
          "name": "butcherName",
          "type": "string"
        },
        {
          "internalType": "string",
          "name": "butcherLoc",
          "type": "string"
        },
        {
          "internalType": "string",
          "name": "halalslaughterMethod",
          "type": "string"
        },
        {
          "internalType": "string",
          "name": "imgRef",
          "type": "string"
        },
        {
          "internalType": "string",
          "name": "dateDistribute",
          "type": "string"
        }
      ],
      "name": "addManufacturer",
      "outputs": [],
      "stateMutability": "nonpayable",
      "type": "function"
    },
    {
      "inputs": [
        {
          "internalType": "string",
          "name": "wagyuID",
          "type": "string"
        }
      ],
      "name": "getWagyuInfo",
      "outputs": [
        {
          "components": [
            {
              "internalType": "string",
              "name": "age",
              "type": "string"
            },
            {
              "internalType": "string",
              "name": "breed",
              "type": "string"
            },
            {
              "internalType": "string",
              "name": "grade",
              "type": "string"
            },
            {
              "internalType": "string",
              "name": "farmerName",
              "type": "string"
            },
            {
              "internalType": "string",
              "name": "farmLoc",
              "type": "string"
            },
            {
              "internalType": "string",
              "name": "halalCareMethod",
              "type": "string"
            }
          ],
          "internalType": "struct Wagyu",
          "name": "",
          "type": "tuple"
        }
      ],
      "stateMutability": "view",
      "type": "function",
      "constant": true
    },
    {
      "inputs": [
        {
          "internalType": "string",
          "name": "wagyuID",
          "type": "string"
        }
      ],
      "name": "getDetailedWagyuInfo",
      "outputs": [
        {
          "components": [
            {
              "internalType": "string",
              "name": "butcherName",
              "type": "string"
            },
            {
              "internalType": "string",
              "name": "butcherLoc",
              "type": "string"
            },
            {
              "internalType": "string",
              "name": "halalslaughterMethod",
              "type": "string"
            },
            {
              "internalType": "string",
              "name": "imgRef",
              "type": "string"
            },
            {
              "internalType": "string",
              "name": "dateDistribute",
              "type": "string"
            },
            {
              "internalType": "bool",
              "name": "availability",
              "type": "bool"
            }
          ],
          "internalType": "struct Manufacturer",
          "name": "",
          "type": "tuple"
        }
      ],
      "stateMutability": "view",
      "type": "function",
      "constant": true
    },
    {
      "inputs": [],
      "name": "getwagyuID",
      "outputs": [
        {
          "internalType": "string[]",
          "name": "",
          "type": "string[]"
        }
      ],
      "stateMutability": "view",
      "type": "function",
      "constant": true
    }
  ],
  "bytecode": "0x60806040523480156200001157600080fd5b506200019c6040518060400160405280600781526020017f436f7741313031000000000000000000000000000000000000000000000000008152506040518060400160405280600281526020017f31320000000000000000000000000000000000000000000000000000000000008152506040518060400160405280600e81526020017f4a6170616e65736520426c61636b0000000000000000000000000000000000008152506040518060400160405280600281526020017f41310000000000000000000000000000000000000000000000000000000000008152506040518060400160405280600581526020017f41686d61640000000000000000000000000000000000000000000000000000008152506040518060400160405280600581526020017f4a6170616e0000000000000000000000000000000000000000000000000000008152506040518060400160405280600581526020017f68616c616c000000000000000000000000000000000000000000000000000000815250620002f660201b60201c565b620002f06040518060400160405280600781526020017f436f7741313031000000000000000000000000000000000000000000000000008152506040518060400160405280600581526020017f526168696d0000000000000000000000000000000000000000000000000000008152506040518060400160405280600581526020017f4a6170616e0000000000000000000000000000000000000000000000000000008152506040518060400160405280600581526020017f486172616d0000000000000000000000000000000000000000000000000000008152506040518060400160405280600c81526020017f436f77413130312e7765627000000000000000000000000000000000000000008152506040518060400160405280600b81526020017f31322044656320323032300000000000000000000000000000000000000000008152506200042b60201b60201c565b62000ac6565b6000879080600181540180825580915050600190039060005260206000200160009091909190915090816200032c9190620008d5565b5062000337620005ed565b868160000181905250858160200181905250848160400181905250838160600181905250828160800181905250818160a001819052508060018960405162000380919062000a2a565b90815260200160405180910390206000820151816000019081620003a59190620008d5565b506020820151816001019081620003bd9190620008d5565b506040820151816002019081620003d59190620008d5565b506060820151816003019081620003ed9190620008d5565b506080820151816004019081620004059190620008d5565b5060a08201518160050190816200041d9190620008d5565b509050505050505050505050565b6200043562000623565b62000446876200053860201b60201c565b8581600001819052508481602001819052508381604001819052508281606001819052508181608001819052508060028860405162000486919062000a2a565b90815260200160405180910390206000820151816000019081620004ab9190620008d5565b506020820151816001019081620004c39190620008d5565b506040820151816002019081620004db9190620008d5565b506060820151816003019081620004f39190620008d5565b5060808201518160040190816200050b9190620008d5565b5060a08201518160050160006101000a81548160ff02191690831515021790555090505050505050505050565b806002816040516200054b919062000a2a565b908152602001604051809103902060050160009054906101000a900460ff1615620005ad576040517f08c379a0000000000000000000000000000000000000000000000000000000008152600401620005a49062000aa4565b60405180910390fd5b6001600283604051620005c1919062000a2a565b908152602001604051809103902060050160006101000a81548160ff0219169083151502179055505050565b6040518060c001604052806060815260200160608152602001606081526020016060815260200160608152602001606081525090565b6040518060c0016040528060608152602001606081526020016060815260200160608152602001606081526020016000151581525090565b600081519050919050565b7f4e487b7100000000000000000000000000000000000000000000000000000000600052604160045260246000fd5b7f4e487b7100000000000000000000000000000000000000000000000000000000600052602260045260246000fd5b60006002820490506001821680620006dd57607f821691505b602082108103620006f357620006f262000695565b5b50919050565b60008190508160005260206000209050919050565b60006020601f8301049050919050565b600082821b905092915050565b6000600883026200075d7fffffffffffffffffffffffffffffffffffffffffffffffffffffffffffffffff826200071e565b6200076986836200071e565b95508019841693508086168417925050509392505050565b6000819050919050565b6000819050919050565b6000620007b6620007b0620007aa8462000781565b6200078b565b62000781565b9050919050565b6000819050919050565b620007d28362000795565b620007ea620007e182620007bd565b8484546200072b565b825550505050565b600090565b62000801620007f2565b6200080e818484620007c7565b505050565b5b8181101562000836576200082a600082620007f7565b60018101905062000814565b5050565b601f82111562000885576200084f81620006f9565b6200085a846200070e565b810160208510156200086a578190505b6200088262000879856200070e565b83018262000813565b50505b505050565b600082821c905092915050565b6000620008aa600019846008026200088a565b1980831691505092915050565b6000620008c5838362000897565b9150826002028217905092915050565b620008e0826200065b565b67ffffffffffffffff811115620008fc57620008fb62000666565b5b620009088254620006c4565b620009158282856200083a565b600060209050601f8311600181146200094d576000841562000938578287015190505b620009448582620008b7565b865550620009b4565b601f1984166200095d86620006f9565b60005b82811015620009875784890151825560018201915060208501945060208101905062000960565b86831015620009a75784890151620009a3601f89168262000897565b8355505b6001600288020188555050505b505050505050565b600081905092915050565b60005b83811015620009e7578082015181840152602081019050620009ca565b60008484015250505050565b600062000a00826200065b565b62000a0c8185620009bc565b935062000a1e818560208601620009c7565b80840191505092915050565b600062000a388284620009f3565b915081905092915050565b600082825260208201905092915050565b7f546865206d656174206973206e6f74206d616e75666163747572656420796574600082015250565b600062000a8c60208362000a43565b915062000a998262000a54565b602082019050919050565b6000602082019050818103600083015262000abf8162000a7d565b9050919050565b611fc88062000ad66000396000f3fe608060405234801561001057600080fd5b50600436106100885760003560e01c806394248f4d1161005b57806394248f4d14610127578063ec1a449914610143578063f490a5ad14610178578063f94873ab1461019457610088565b8063386f227a1461008d5780633e21b035146100bd578063401b49cf146100ed578063872243dc1461010b575b600080fd5b6100a760048036038101906100a2919061148c565b6101c9565b6040516100b49190611614565b60405180910390f35b6100d760048036038101906100d2919061148c565b6104f6565b6040516100e491906116e2565b60405180910390f35b6100f561089a565b60405161010291906117c6565b60405180910390f35b610125600480360381019061012091906117e8565b610973565b005b610141600480360381019061013c919061194e565b610a96565b005b61015d6004803603810190610158919061148c565b610b8d565b60405161016f96959493929190611adc565b60405180910390f35b610192600480360381019061018d919061148c565b610e94565b005b6101ae60048036038101906101a9919061148c565b610f42565b6040516101c096959493929190611b60565b60405180910390f35b6101d16112c4565b6002826040516101e19190611c27565b90815260200160405180910390206040518060c001604052908160008201805461020a90611c6d565b80601f016020809104026020016040519081016040528092919081815260200182805461023690611c6d565b80156102835780601f1061025857610100808354040283529160200191610283565b820191906000526020600020905b81548152906001019060200180831161026657829003601f168201915b5050505050815260200160018201805461029c90611c6d565b80601f01602080910402602001604051908101604052809291908181526020018280546102c890611c6d565b80156103155780601f106102ea57610100808354040283529160200191610315565b820191906000526020600020905b8154815290600101906020018083116102f857829003601f168201915b5050505050815260200160028201805461032e90611c6d565b80601f016020809104026020016040519081016040528092919081815260200182805461035a90611c6d565b80156103a75780601f1061037c576101008083540402835291602001916103a7565b820191906000526020600020905b81548152906001019060200180831161038a57829003601f168201915b505050505081526020016003820180546103c090611c6d565b80601f01602080910402602001604051908101604052809291908181526020018280546103ec90611c6d565b80156104395780601f1061040e57610100808354040283529160200191610439565b820191906000526020600020905b81548152906001019060200180831161041c57829003601f168201915b5050505050815260200160048201805461045290611c6d565b80601f016020809104026020016040519081016040528092919081815260200182805461047e90611c6d565b80156104cb5780601f106104a0576101008083540402835291602001916104cb565b820191906000526020600020905b8154815290600101906020018083116104ae57829003601f168201915b505050505081526020016005820160009054906101000a900460ff1615151515815250509050919050565b6104fe6112fc565b60018260405161050e9190611c27565b90815260200160405180910390206040518060c001604052908160008201805461053790611c6d565b80601f016020809104026020016040519081016040528092919081815260200182805461056390611c6d565b80156105b05780601f10610585576101008083540402835291602001916105b0565b820191906000526020600020905b81548152906001019060200180831161059357829003601f168201915b505050505081526020016001820180546105c990611c6d565b80601f01602080910402602001604051908101604052809291908181526020018280546105f590611c6d565b80156106425780601f1061061757610100808354040283529160200191610642565b820191906000526020600020905b81548152906001019060200180831161062557829003601f168201915b5050505050815260200160028201805461065b90611c6d565b80601f016020809104026020016040519081016040528092919081815260200182805461068790611c6d565b80156106d45780601f106106a9576101008083540402835291602001916106d4565b820191906000526020600020905b8154815290600101906020018083116106b757829003601f168201915b505050505081526020016003820180546106ed90611c6d565b80601f016020809104026020016040519081016040528092919081815260200182805461071990611c6d565b80156107665780601f1061073b57610100808354040283529160200191610766565b820191906000526020600020905b81548152906001019060200180831161074957829003601f168201915b5050505050815260200160048201805461077f90611c6d565b80601f01602080910402602001604051908101604052809291908181526020018280546107ab90611c6d565b80156107f85780601f106107cd576101008083540402835291602001916107f8565b820191906000526020600020905b8154815290600101906020018083116107db57829003601f168201915b5050505050815260200160058201805461081190611c6d565b80601f016020809104026020016040519081016040528092919081815260200182805461083d90611c6d565b801561088a5780601f1061085f5761010080835404028352916020019161088a565b820191906000526020600020905b81548152906001019060200180831161086d57829003601f168201915b5050505050815250509050919050565b60606000805480602002602001604051908101604052809291908181526020016000905b8282101561096a5783829060005260206000200180546108dd90611c6d565b80601f016020809104026020016040519081016040528092919081815260200182805461090990611c6d565b80156109565780601f1061092b57610100808354040283529160200191610956565b820191906000526020600020905b81548152906001019060200180831161093957829003601f168201915b5050505050815260200190600101906108be565b50505050905090565b6000879080600181540180825580915050600190039060005260206000200160009091909190915090816109a79190611e54565b506109b06112fc565b868160000181905250858160200181905250848160400181905250838160600181905250828160800181905250818160a00181905250806001896040516109f79190611c27565b90815260200160405180910390206000820151816000019081610a1a9190611e54565b506020820151816001019081610a309190611e54565b506040820151816002019081610a469190611e54565b506060820151816003019081610a5c9190611e54565b506080820151816004019081610a729190611e54565b5060a0820151816005019081610a889190611e54565b509050505050505050505050565b610a9e6112c4565b610aa787610e94565b85816000018190525084816020018190525083816040018190525082816060018190525081816080018190525080600288604051610ae59190611c27565b90815260200160405180910390206000820151816000019081610b089190611e54565b506020820151816001019081610b1e9190611e54565b506040820151816002019081610b349190611e54565b506060820151816003019081610b4a9190611e54565b506080820151816004019081610b609190611e54565b5060a08201518160050160006101000a81548160ff02191690831515021790555090505050505050505050565b600281805160208101820180518482526020830160208501208183528095505050505050600091509050806000018054610bc690611c6d565b80601f0160208091040260200160405190810160405280929190818152602001828054610bf290611c6d565b8015610c3f5780601f10610c1457610100808354040283529160200191610c3f565b820191906000526020600020905b815481529060010190602001808311610c2257829003601f168201915b505050505090806001018054610c5490611c6d565b80601f0160208091040260200160405190810160405280929190818152602001828054610c8090611c6d565b8015610ccd5780601f10610ca257610100808354040283529160200191610ccd565b820191906000526020600020905b815481529060010190602001808311610cb057829003601f168201915b505050505090806002018054610ce290611c6d565b80601f0160208091040260200160405190810160405280929190818152602001828054610d0e90611c6d565b8015610d5b5780601f10610d3057610100808354040283529160200191610d5b565b820191906000526020600020905b815481529060010190602001808311610d3e57829003601f168201915b505050505090806003018054610d7090611c6d565b80601f0160208091040260200160405190810160405280929190818152602001828054610d9c90611c6d565b8015610de95780601f10610dbe57610100808354040283529160200191610de9565b820191906000526020600020905b815481529060010190602001808311610dcc57829003601f168201915b505050505090806004018054610dfe90611c6d565b80601f0160208091040260200160405190810160405280929190818152602001828054610e2a90611c6d565b8015610e775780601f10610e4c57610100808354040283529160200191610e77565b820191906000526020600020905b815481529060010190602001808311610e5a57829003601f168201915b5050505050908060050160009054906101000a900460ff16905086565b80600281604051610ea59190611c27565b908152602001604051809103902060050160009054906101000a900460ff1615610f04576040517f08c379a0000000000000000000000000000000000000000000000000000000008152600401610efb90611f72565b60405180910390fd5b6001600283604051610f169190611c27565b908152602001604051809103902060050160006101000a81548160ff0219169083151502179055505050565b600181805160208101820180518482526020830160208501208183528095505050505050600091509050806000018054610f7b90611c6d565b80601f0160208091040260200160405190810160405280929190818152602001828054610fa790611c6d565b8015610ff45780601f10610fc957610100808354040283529160200191610ff4565b820191906000526020600020905b815481529060010190602001808311610fd757829003601f168201915b50505050509080600101805461100990611c6d565b80601f016020809104026020016040519081016040528092919081815260200182805461103590611c6d565b80156110825780601f1061105757610100808354040283529160200191611082565b820191906000526020600020905b81548152906001019060200180831161106557829003601f168201915b50505050509080600201805461109790611c6d565b80601f01602080910402602001604051908101604052809291908181526020018280546110c390611c6d565b80156111105780601f106110e557610100808354040283529160200191611110565b820191906000526020600020905b8154815290600101906020018083116110f357829003601f168201915b50505050509080600301805461112590611c6d565b80601f016020809104026020016040519081016040528092919081815260200182805461115190611c6d565b801561119e5780601f106111735761010080835404028352916020019161119e565b820191906000526020600020905b81548152906001019060200180831161118157829003601f168201915b5050505050908060040180546111b390611c6d565b80601f01602080910402602001604051908101604052809291908181526020018280546111df90611c6d565b801561122c5780601f106112015761010080835404028352916020019161122c565b820191906000526020600020905b81548152906001019060200180831161120f57829003601f168201915b50505050509080600501805461124190611c6d565b80601f016020809104026020016040519081016040528092919081815260200182805461126d90611c6d565b80156112ba5780601f1061128f576101008083540402835291602001916112ba565b820191906000526020600020905b81548152906001019060200180831161129d57829003601f168201915b5050505050905086565b6040518060c0016040528060608152602001606081526020016060815260200160608152602001606081526020016000151581525090565b6040518060c001604052806060815260200160608152602001606081526020016060815260200160608152602001606081525090565b6000604051905090565b600080fd5b600080fd5b600080fd5b600080fd5b6000601f19601f8301169050919050565b7f4e487b7100000000000000000000000000000000000000000000000000000000600052604160045260246000fd5b61139982611350565b810181811067ffffffffffffffff821117156113b8576113b7611361565b5b80604052505050565b60006113cb611332565b90506113d78282611390565b919050565b600067ffffffffffffffff8211156113f7576113f6611361565b5b61140082611350565b9050602081019050919050565b82818337600083830152505050565b600061142f61142a846113dc565b6113c1565b90508281526020810184848401111561144b5761144a61134b565b5b61145684828561140d565b509392505050565b600082601f83011261147357611472611346565b5b813561148384826020860161141c565b91505092915050565b6000602082840312156114a2576114a161133c565b5b600082013567ffffffffffffffff8111156114c0576114bf611341565b5b6114cc8482850161145e565b91505092915050565b600081519050919050565b600082825260208201905092915050565b60005b8381101561150f5780820151818401526020810190506114f4565b60008484015250505050565b6000611526826114d5565b61153081856114e0565b93506115408185602086016114f1565b61154981611350565b840191505092915050565b60008115159050919050565b61156981611554565b82525050565b600060c083016000830151848203600086015261158c828261151b565b915050602083015184820360208601526115a6828261151b565b915050604083015184820360408601526115c0828261151b565b915050606083015184820360608601526115da828261151b565b915050608083015184820360808601526115f4828261151b565b91505060a083015161160960a0860182611560565b508091505092915050565b6000602082019050818103600083015261162e818461156f565b905092915050565b600060c0830160008301518482036000860152611653828261151b565b9150506020830151848203602086015261166d828261151b565b91505060408301518482036040860152611687828261151b565b915050606083015184820360608601526116a1828261151b565b915050608083015184820360808601526116bb828261151b565b91505060a083015184820360a08601526116d5828261151b565b9150508091505092915050565b600060208201905081810360008301526116fc8184611636565b905092915050565b600081519050919050565b600082825260208201905092915050565b6000819050602082019050919050565b600061173c838361151b565b905092915050565b6000602082019050919050565b600061175c82611704565b611766818561170f565b93508360208202850161177885611720565b8060005b858110156117b457848403895281516117958582611730565b94506117a083611744565b925060208a0199505060018101905061177c565b50829750879550505050505092915050565b600060208201905081810360008301526117e08184611751565b905092915050565b600080600080600080600060e0888a0312156118075761180661133c565b5b600088013567ffffffffffffffff81111561182557611824611341565b5b6118318a828b0161145e565b975050602088013567ffffffffffffffff81111561185257611851611341565b5b61185e8a828b0161145e565b965050604088013567ffffffffffffffff81111561187f5761187e611341565b5b61188b8a828b0161145e565b955050606088013567ffffffffffffffff8111156118ac576118ab611341565b5b6118b88a828b0161145e565b945050608088013567ffffffffffffffff8111156118d9576118d8611341565b5b6118e58a828b0161145e565b93505060a088013567ffffffffffffffff81111561190657611905611341565b5b6119128a828b0161145e565b92505060c088013567ffffffffffffffff81111561193357611932611341565b5b61193f8a828b0161145e565b91505092959891949750929550565b60008060008060008060c0878903121561196b5761196a61133c565b5b600087013567ffffffffffffffff81111561198957611988611341565b5b61199589828a0161145e565b965050602087013567ffffffffffffffff8111156119b6576119b5611341565b5b6119c289828a0161145e565b955050604087013567ffffffffffffffff8111156119e3576119e2611341565b5b6119ef89828a0161145e565b945050606087013567ffffffffffffffff811115611a1057611a0f611341565b5b611a1c89828a0161145e565b935050608087013567ffffffffffffffff811115611a3d57611a3c611341565b5b611a4989828a0161145e565b92505060a087013567ffffffffffffffff811115611a6a57611a69611341565b5b611a7689828a0161145e565b9150509295509295509295565b600082825260208201905092915050565b6000611a9f826114d5565b611aa98185611a83565b9350611ab98185602086016114f1565b611ac281611350565b840191505092915050565b611ad681611554565b82525050565b600060c0820190508181036000830152611af68189611a94565b90508181036020830152611b0a8188611a94565b90508181036040830152611b1e8187611a94565b90508181036060830152611b328186611a94565b90508181036080830152611b468185611a94565b9050611b5560a0830184611acd565b979650505050505050565b600060c0820190508181036000830152611b7a8189611a94565b90508181036020830152611b8e8188611a94565b90508181036040830152611ba28187611a94565b90508181036060830152611bb68186611a94565b90508181036080830152611bca8185611a94565b905081810360a0830152611bde8184611a94565b9050979650505050505050565b600081905092915050565b6000611c01826114d5565b611c0b8185611beb565b9350611c1b8185602086016114f1565b80840191505092915050565b6000611c338284611bf6565b915081905092915050565b7f4e487b7100000000000000000000000000000000000000000000000000000000600052602260045260246000fd5b60006002820490506001821680611c8557607f821691505b602082108103611c9857611c97611c3e565b5b50919050565b60008190508160005260206000209050919050565b60006020601f8301049050919050565b600082821b905092915050565b600060088302611d007fffffffffffffffffffffffffffffffffffffffffffffffffffffffffffffffff82611cc3565b611d0a8683611cc3565b95508019841693508086168417925050509392505050565b6000819050919050565b6000819050919050565b6000611d51611d4c611d4784611d22565b611d2c565b611d22565b9050919050565b6000819050919050565b611d6b83611d36565b611d7f611d7782611d58565b848454611cd0565b825550505050565b600090565b611d94611d87565b611d9f818484611d62565b505050565b5b81811015611dc357611db8600082611d8c565b600181019050611da5565b5050565b601f821115611e0857611dd981611c9e565b611de284611cb3565b81016020851015611df1578190505b611e05611dfd85611cb3565b830182611da4565b50505b505050565b600082821c905092915050565b6000611e2b60001984600802611e0d565b1980831691505092915050565b6000611e448383611e1a565b9150826002028217905092915050565b611e5d826114d5565b67ffffffffffffffff811115611e7657611e75611361565b5b611e808254611c6d565b611e8b828285611dc7565b600060209050601f831160018114611ebe5760008415611eac578287015190505b611eb68582611e38565b865550611f1e565b601f198416611ecc86611c9e565b60005b82811015611ef457848901518255600182019150602085019450602081019050611ecf565b86831015611f115784890151611f0d601f891682611e1a565b8355505b6001600288020188555050505b505050505050565b7f546865206d656174206973206e6f74206d616e75666163747572656420796574600082015250565b6000611f5c602083611a83565b9150611f6782611f26565b602082019050919050565b60006020820190508181036000830152611f8b81611f4f565b905091905056fea2646970667358221220ce5a0becf7fc0ed1d995a6765e854c1be28acb5ca397367ef1beee7722f8ca9c64736f6c63430008110033",
  "immutableReferences": {},
  "source": "// SPDX-License-Identifier: MIT\npragma solidity >=0.4.22 <0.9.0;\n\n//data structure for Wagyu Cow Care Information\nstruct Wagyu {\n  string age;\n  string breed;\n  string grade;\n  string farmerName;\n  string farmLoc;\n  string halalCareMethod;\n  }\n\n//data structure for Wagyu Meat Processing Information\nstruct Manufacturer {\n  string butcherName;\n  string butcherLoc;\n  string halalslaughterMethod;\n  string imgRef;\n  string dateDistribute;\n  bool availability;\n}\n\n//Contract to create, update and store the information of wagyu into struct datastructure\ncontract WagyuInfo {\n\n  //array of ID of all wagyu\n  string[] wID;\n\n  //mapping the struct datastructure to one string reference\n  mapping(string => Wagyu) public wagyu;\n  mapping(string => Manufacturer) public manufacturer;\n\n  //Check either the meat has reach the manufacturing process or not\n  modifier isDistribute(string memory wagyuID) {\n    require (!manufacturer[wagyuID].availability, \"The meat is not manufactured yet\");\n    _;\n  }\n\n  //this function is to add information Wagyu Cow Care into struct Wagyu\n  function addWagyu (string memory wagyuID, string memory _age, string memory breed, string memory grade, string memory farmerName,  string memory farmLoc, \n  string memory halalCareMethod) public {\n    wID.push(wagyuID);\n    Wagyu memory newWagyu;\n    newWagyu.age = _age;\n    newWagyu.breed = breed;\n    newWagyu.grade = grade;\n    newWagyu.farmerName = farmerName;\n    newWagyu.farmLoc = farmLoc;\n    newWagyu.halalCareMethod = halalCareMethod;\n    wagyu[wagyuID] = newWagyu;\n  }\n\n  //Declare a function to change the availability of wagyu\n  function wagyuAvailability (string memory wagyuID) public isDistribute(wagyuID){\n    manufacturer[wagyuID].availability = true;\n  }\n\n  //Declare a function to add information of Wagyu Meat Processing into struct Manufacturer\n  function addManufacturer (string memory wagyuID, string memory butcherName, string memory butcherLoc, string memory halalslaughterMethod, string memory imgRef, string memory dateDistribute) public {\n    Manufacturer memory newManufacturer;\n    wagyuAvailability(wagyuID);\n    newManufacturer.butcherName = butcherName;\n    newManufacturer.butcherLoc = butcherLoc;\n    newManufacturer.halalslaughterMethod = halalslaughterMethod;\n    newManufacturer.imgRef = imgRef;\n    newManufacturer.dateDistribute = dateDistribute;\n    manufacturer[wagyuID] = newManufacturer;\n  } \n\n  //Function to retrieve information of Wagyu Cow Care phases\n  function getWagyuInfo(string memory wagyuID) public view returns(Wagyu memory){\n    return wagyu[wagyuID];\n  }\n\n  //Function to retrieve information of Wagyu Meat Processing phases\n  function getDetailedWagyuInfo(string memory wagyuID) public view returns(Manufacturer memory){\n    return manufacturer[wagyuID];\n  }\n\n  function getwagyuID() public view returns (string[] memory){\n    return wID;\n  }\n  \n  //Declare initial value of WagyuInfo block\n  constructor(){\n    addWagyu(\"CowA101\", \"12\", \"Japanese Black\", \"A1\", \"Ahmad\",\"Japan\",\"halal\");\n    addManufacturer(\"CowA101\", \"Rahim\", \"Japan\", \"Haram\", \"CowA101.webp\", \"12 Dec 2020\");\n  }\n}",
  "sourcePath": "C:\\Users\\LeonyX\\Documents\\Blockchain\\.vscode\\GroupProject\\mywagyu\\src\\truffle\\contracts\\Wagyu.sol",
  "compiler": {
    "name": "solc",
    "version": "0.8.17+commit.8df45f5f.Emscripten.clang"
  },
  "schemaVersion": "3.4.11",
  "updatedAt": "2023-01-24T18:33:48.785Z",
  "networkType": "ethereum",
  "devdoc": {
    "kind": "dev",
    "methods": {},
    "version": 1
  },
  "userdoc": {
    "kind": "user",
    "methods": {},
    "version": 1
  }
}